{
  "_format": "hh-sol-artifact-1",
  "contractName": "Auction",
  "sourceName": "contracts/Auction.sol",
  "abi": [
    {
      "anonymous": false,
      "inputs": [
        {
          "indexed": false,
          "internalType": "address",
          "name": "hNFTContractAddr",
          "type": "address"
        },
        {
          "indexed": true,
          "internalType": "uint256",
          "name": "curBidId",
          "type": "uint256"
        },
        {
          "indexed": true,
          "internalType": "uint256",
          "name": "preBidId",
          "type": "uint256"
        },
        {
          "indexed": false,
          "internalType": "address",
          "name": "bidder",
          "type": "address"
        }
      ],
      "name": "BidCommitted",
      "type": "event"
    },
    {
      "anonymous": false,
      "inputs": [
        {
          "indexed": false,
          "internalType": "address",
          "name": "hNFTContractAddr",
          "type": "address"
        },
        {
          "indexed": true,
          "internalType": "uint256",
          "name": "curBidId",
          "type": "uint256"
        },
        {
          "indexed": true,
          "internalType": "uint256",
          "name": "preBidId",
          "type": "uint256"
        },
        {
          "indexed": false,
          "internalType": "address",
          "name": "bidder",
          "type": "address"
        },
        {
          "indexed": false,
          "internalType": "address",
          "name": "goverAddr",
          "type": "address"
        }
      ],
      "name": "BidPrepared",
      "type": "event"
    },
    {
      "anonymous": false,
      "inputs": [
        {
          "indexed": false,
          "internalType": "uint256",
          "name": "bidId",
          "type": "uint256"
        },
        {
          "indexed": false,
          "internalType": "uint256",
          "name": "hNFTId",
          "type": "uint256"
        },
        {
          "indexed": false,
          "internalType": "address",
          "name": "to",
          "type": "address"
        },
        {
          "indexed": false,
          "internalType": "uint256",
          "name": "amount",
          "type": "uint256"
        }
      ],
      "name": "BidRefunded",
      "type": "event"
    },
    {
      "anonymous": false,
      "inputs": [
        {
          "indexed": false,
          "internalType": "uint8",
          "name": "version",
          "type": "uint8"
        }
      ],
      "name": "Initialized",
      "type": "event"
    },
    {
      "anonymous": false,
      "inputs": [
        {
          "indexed": true,
          "internalType": "address",
          "name": "previousOwner",
          "type": "address"
        },
        {
          "indexed": true,
          "internalType": "address",
          "name": "newOwner",
          "type": "address"
        }
      ],
      "name": "OwnershipTransferred",
      "type": "event"
    },
    {
      "inputs": [
        {
          "components": [
            {
              "internalType": "uint256",
              "name": "hNFTId",
              "type": "uint256"
            },
            {
              "internalType": "address",
              "name": "hNFTContractAddr",
              "type": "address"
            }
          ],
          "internalType": "struct Auction.HNFTInfo",
          "name": "hNFTInfo",
          "type": "tuple"
        },
        {
          "internalType": "uint256",
          "name": "governanceTokenAmount",
          "type": "uint256"
        },
        {
          "internalType": "string",
          "name": "slotUri",
          "type": "string"
        },
        {
          "internalType": "bytes",
          "name": "_signature",
          "type": "bytes"
        },
        {
          "internalType": "uint256",
          "name": "curBidId",
          "type": "uint256"
        },
        {
          "internalType": "uint256",
          "name": "preBidId",
          "type": "uint256"
        },
        {
          "internalType": "uint256",
          "name": "curBidRemain",
          "type": "uint256"
        }
      ],
      "name": "commitBid",
      "outputs": [],
      "stateMutability": "nonpayable",
      "type": "function"
    },
    {
      "inputs": [
        {
          "internalType": "address",
          "name": "",
          "type": "address"
        },
        {
          "internalType": "uint256",
          "name": "",
          "type": "uint256"
        }
      ],
      "name": "curBid",
      "outputs": [
        {
          "internalType": "uint256",
          "name": "bidId",
          "type": "uint256"
        },
        {
          "internalType": "uint256",
          "name": "amount",
          "type": "uint256"
        },
        {
          "internalType": "address",
          "name": "bidder",
          "type": "address"
        },
        {
          "internalType": "string",
          "name": "slotUri",
          "type": "string"
        },
        {
          "internalType": "address",
          "name": "governanceTokenAddr",
          "type": "address"
        }
      ],
      "stateMutability": "view",
      "type": "function"
    },
    {
      "inputs": [],
      "name": "getMinDepositForPreBid",
      "outputs": [
        {
          "internalType": "uint256",
          "name": "",
          "type": "uint256"
        }
      ],
      "stateMutability": "view",
      "type": "function"
    },
    {
      "inputs": [
        {
          "internalType": "address",
          "name": "hNFTAddr",
          "type": "address"
        },
        {
          "internalType": "uint256",
          "name": "hNFTId",
          "type": "uint256"
        }
      ],
      "name": "getPrepareBidInfo",
      "outputs": [
        {
          "components": [
            {
              "internalType": "uint256",
              "name": "bidId",
              "type": "uint256"
            },
            {
              "internalType": "uint256",
              "name": "amount",
              "type": "uint256"
            },
            {
              "internalType": "address",
              "name": "bidder",
              "type": "address"
            },
            {
              "internalType": "uint256",
              "name": "preBidTime",
              "type": "uint256"
            },
            {
              "internalType": "address",
              "name": "governanceTokenAddr",
              "type": "address"
            },
            {
              "internalType": "uint256",
              "name": "curBidId",
              "type": "uint256"
            }
          ],
          "internalType": "struct Auction.PrepareBidInfo",
          "name": "",
          "type": "tuple"
        }
      ],
      "stateMutability": "view",
      "type": "function"
    },
    {
      "inputs": [],
      "name": "getRelayerAddress",
      "outputs": [
        {
          "internalType": "address",
          "name": "",
          "type": "address"
        }
      ],
      "stateMutability": "view",
      "type": "function"
    },
    {
      "inputs": [
        {
          "internalType": "address",
          "name": "_relayerAddress",
          "type": "address"
        },
        {
          "internalType": "address",
          "name": "_ad3Address",
          "type": "address"
        },
        {
          "internalType": "address",
          "name": "_hnftGoverAddress",
          "type": "address"
        }
      ],
      "name": "initialize",
      "outputs": [],
      "stateMutability": "nonpayable",
      "type": "function"
    },
    {
      "inputs": [],
      "name": "owner",
      "outputs": [
        {
          "internalType": "address",
          "name": "",
          "type": "address"
        }
      ],
      "stateMutability": "view",
      "type": "function"
    },
    {
      "inputs": [
        {
          "internalType": "address",
          "name": "hNFTContractAddr",
          "type": "address"
        },
        {
          "internalType": "uint256",
          "name": "hNFTId",
          "type": "uint256"
        }
      ],
      "name": "preBid",
      "outputs": [],
      "stateMutability": "nonpayable",
      "type": "function"
    },
    {
      "inputs": [
        {
          "internalType": "address",
          "name": "",
          "type": "address"
        },
        {
          "internalType": "uint256",
          "name": "",
          "type": "uint256"
        }
      ],
      "name": "preBids",
      "outputs": [
        {
          "internalType": "uint256",
          "name": "bidId",
          "type": "uint256"
        },
        {
          "internalType": "uint256",
          "name": "amount",
          "type": "uint256"
        },
        {
          "internalType": "address",
          "name": "bidder",
          "type": "address"
        },
        {
          "internalType": "uint256",
          "name": "preBidTime",
          "type": "uint256"
        },
        {
          "internalType": "address",
          "name": "governanceTokenAddr",
          "type": "address"
        }
      ],
      "stateMutability": "view",
      "type": "function"
    },
    {
      "inputs": [
        {
          "internalType": "uint256",
          "name": "hnftId",
          "type": "uint256"
        },
        {
          "internalType": "address",
          "name": "hNFTContractAddr",
          "type": "address"
        },
        {
          "internalType": "address",
          "name": "governanceTokenAddress",
          "type": "address"
        },
        {
          "internalType": "uint256",
          "name": "governanceTokenAmount",
          "type": "uint256"
        },
        {
          "internalType": "uint256",
          "name": "curBidId",
          "type": "uint256"
        },
        {
          "internalType": "uint256",
          "name": "preBidId",
          "type": "uint256"
        },
        {
          "internalType": "bytes",
          "name": "_signature",
          "type": "bytes"
        }
      ],
      "name": "recover",
      "outputs": [
        {
          "internalType": "address",
          "name": "",
          "type": "address"
        }
      ],
      "stateMutability": "pure",
      "type": "function"
    },
    {
      "inputs": [],
      "name": "renounceOwnership",
      "outputs": [],
      "stateMutability": "nonpayable",
      "type": "function"
    },
    {
      "inputs": [
        {
          "internalType": "uint256",
          "name": "_MIN_DEPOIST_FOR_PRE_BID",
          "type": "uint256"
        }
      ],
      "name": "setMinDepositForPreBid",
      "outputs": [],
      "stateMutability": "nonpayable",
      "type": "function"
    },
    {
      "inputs": [
        {
          "internalType": "address",
          "name": "_relayerAddress",
          "type": "address"
        }
      ],
      "name": "setRelayerAddress",
      "outputs": [],
      "stateMutability": "nonpayable",
      "type": "function"
    },
    {
      "inputs": [
        {
          "internalType": "address",
          "name": "newOwner",
          "type": "address"
        }
      ],
      "name": "transferOwnership",
      "outputs": [],
      "stateMutability": "nonpayable",
      "type": "function"
    }
  ],
  "bytecode": "0x608060405234801561001057600080fd5b506140d6806100206000396000f3fe608060405234801561001057600080fd5b50600436106100ea5760003560e01c80639f757e9c1161008c578063d384a0d711610066578063d384a0d71461022b578063e61774bb14610247578063e9b83ac814610277578063f2fde38b146102a7576100ea565b80639f757e9c146101bd578063aeb84804146101f1578063c0c53b8b1461020f576100ea565b8063715018a6116100c8578063715018a61461015b57806372ca1921146101655780638da5cb5b146101815780639c2dadc91461019f576100ea565b80632d0d4dc3146100ef578063375473f21461010b5780636670be9f14610127575b600080fd5b61010960048036038101906101049190612b2d565b6102c3565b005b61012560048036038101906101209190612b9a565b610a69565b005b610141600480360381019061013c9190612b2d565b6110de565b604051610152959493929190613758565b60405180910390f35b610163611161565b005b61017f600480360381019061017a9190612c75565b611175565b005b610189611187565b604051610196919061326f565b60405180910390f35b6101a76111b1565b6040516101b4919061326f565b60405180910390f35b6101d760048036038101906101d29190612b2d565b6111e3565b6040516101e89594939291906136b9565b60405180910390f35b6101f96112ee565b6040516102069190613645565b60405180910390f35b61022960048036038101906102249190612ada565b611300565b005b61024560048036038101906102409190612a80565b611515565b005b610261600480360381019061025c9190612ccf565b611561565b60405161026e919061326f565b60405180910390f35b610291600480360381019061028c9190612b2d565b611594565b60405161029e919061362a565b60405180910390f35b6102c160048036038101906102bc9190612a80565b611794565b005b60008111610306576040517f08c379a00000000000000000000000000000000000000000000000000000000081526004016102fd906134ca565b60405180910390fd5b61036e606b54606960008573ffffffffffffffffffffffffffffffffffffffff1673ffffffffffffffffffffffffffffffffffffffff16815260200190815260200160002060008481526020019081526020016000206003015461181890919063ffffffff16565b4210156103b0576040517f08c379a00000000000000000000000000000000000000000000000000000000081526004016103a79061360a565b60405180910390fd5b60008290508073ffffffffffffffffffffffffffffffffffffffff166321d68f8283306040518363ffffffff1660e01b81526004016103f0929190613660565b60206040518083038186803b15801561040857600080fd5b505afa15801561041c573d6000803e3d6000fd5b505050506040513d601f19601f820116820180604052508101906104409190612b6d565b61047f576040517f08c379a0000000000000000000000000000000000000000000000000000000008152600401610476906134aa565b60405180910390fd5b6000606660009054906101000a900473ffffffffffffffffffffffffffffffffffffffff169050606a548173ffffffffffffffffffffffffffffffffffffffff166370a082316104cd61182e565b6040518263ffffffff1660e01b81526004016104e9919061326f565b60206040518083038186803b15801561050157600080fd5b505afa158015610515573d6000803e3d6000fd5b505050506040513d601f19601f820116820180604052508101906105399190612ca2565b101561057a576040517f08c379a0000000000000000000000000000000000000000000000000000000008152600401610571906135ea565b60405180910390fd5b606a548173ffffffffffffffffffffffffffffffffffffffff1663dd62ed3e6105a161182e565b306040518363ffffffff1660e01b81526004016105bf92919061328a565b60206040518083038186803b1580156105d757600080fd5b505afa1580156105eb573d6000803e3d6000fd5b505050506040513d601f19601f8201168201806040525081019061060f9190612ca2565b1015610650576040517f08c379a00000000000000000000000000000000000000000000000000000000081526004016106479061354a565b60405180910390fd5b8073ffffffffffffffffffffffffffffffffffffffff166323b872dd61067461182e565b30606a546040518463ffffffff1660e01b8152600401610696939291906132ea565b602060405180830381600087803b1580156106b057600080fd5b505af11580156106c4573d6000803e3d6000fd5b505050506040513d601f19601f820116820180604052508101906106e89190612b6d565b5060006106f3611836565b90506000606760009054906101000a900473ffffffffffffffffffffffffffffffffffffffff1673ffffffffffffffffffffffffffffffffffffffff1663ec4156f987876040518363ffffffff1660e01b8152600401610754929190613321565b60206040518083038186803b15801561076c57600080fd5b505afa158015610780573d6000803e3d6000fd5b505050506040513d601f19601f820116820180604052508101906107a49190612aad565b9050600073ffffffffffffffffffffffffffffffffffffffff168173ffffffffffffffffffffffffffffffffffffffff16146107e05780610804565b606660009054906101000a900473ffffffffffffffffffffffffffffffffffffffff165b90506040518060a00160405280838152602001606a54815260200161082761182e565b73ffffffffffffffffffffffffffffffffffffffff1681526020014281526020018273ffffffffffffffffffffffffffffffffffffffff16815250606960008873ffffffffffffffffffffffffffffffffffffffff1673ffffffffffffffffffffffffffffffffffffffff1681526020019081526020016000206000878152602001908152602001600020600082015181600001556020820151816001015560408201518160020160006101000a81548173ffffffffffffffffffffffffffffffffffffffff021916908373ffffffffffffffffffffffffffffffffffffffff1602179055506060820151816003015560808201518160040160006101000a81548173ffffffffffffffffffffffffffffffffffffffff021916908373ffffffffffffffffffffffffffffffffffffffff160217905550905050600080606860008973ffffffffffffffffffffffffffffffffffffffff1673ffffffffffffffffffffffffffffffffffffffff16815260200190815260200160002060008881526020019081526020016000206000015414156109c5576000610a1a565b606860008873ffffffffffffffffffffffffffffffffffffffff1673ffffffffffffffffffffffffffffffffffffffff1681526020019081526020016000206000878152602001908152602001600020600001545b905082817fc399bb9aa0e229b2297769ecdb77954634f025283b2f5ff54a0a47026c021a3289610a4861182e565b86604051610a58939291906132b3565b60405180910390a350505050505050565b6000876000015111610ab0576040517f08c379a0000000000000000000000000000000000000000000000000000000008152600401610aa7906134ca565b60405180910390fd5b60008611610af3576040517f08c379a0000000000000000000000000000000000000000000000000000000008152600401610aea906133ca565b60405180910390fd5b600073ffffffffffffffffffffffffffffffffffffffff16876020015173ffffffffffffffffffffffffffffffffffffffff161415610b67576040517f08c379a0000000000000000000000000000000000000000000000000000000008152600401610b5e906135aa565b60405180910390fd5b60686000886020015173ffffffffffffffffffffffffffffffffffffffff1673ffffffffffffffffffffffffffffffffffffffff168152602001908152602001600020600088600001518152602001908152602001600020600001548314610c04576040517f08c379a0000000000000000000000000000000000000000000000000000000008152600401610bfb9061352a565b60405180910390fd5b60696000886020015173ffffffffffffffffffffffffffffffffffffffff1673ffffffffffffffffffffffffffffffffffffffff168152602001908152602001600020600088600001518152602001908152602001600020600001548214610ca1576040517f08c379a0000000000000000000000000000000000000000000000000000000008152600401610c989061358a565b60405180910390fd5b600060696000896020015173ffffffffffffffffffffffffffffffffffffffff1673ffffffffffffffffffffffffffffffffffffffff16815260200190815260200160002060008960000151815260200190815260200160002060040160009054906101000a900473ffffffffffffffffffffffffffffffffffffffff169050868173ffffffffffffffffffffffffffffffffffffffff166370a08231610d4661182e565b6040518263ffffffff1660e01b8152600401610d62919061326f565b60206040518083038186803b158015610d7a57600080fd5b505afa158015610d8e573d6000803e3d6000fd5b505050506040513d601f19601f82011682018060405250810190610db29190612ca2565b1015610df3576040517f08c379a0000000000000000000000000000000000000000000000000000000008152600401610dea9061340a565b60405180910390fd5b868173ffffffffffffffffffffffffffffffffffffffff1663dd62ed3e610e1861182e565b306040518363ffffffff1660e01b8152600401610e3692919061328a565b60206040518083038186803b158015610e4e57600080fd5b505afa158015610e62573d6000803e3d6000fd5b505050506040513d601f19601f82011682018060405250810190610e869190612ca2565b1015610ec7576040517f08c379a0000000000000000000000000000000000000000000000000000000008152600401610ebe9061354a565b60405180910390fd5b6000610ee089600001518a60200151848b89898c611561565b9050610eeb8161187d565b610f2a576040517f08c379a0000000000000000000000000000000000000000000000000000000008152600401610f219061356a565b60405180910390fd5b610f3483896118d7565b610f73576040517f08c379a0000000000000000000000000000000000000000000000000000000008152600401610f6a9061346a565b60405180910390fd5b606960008a6020015173ffffffffffffffffffffffffffffffffffffffff1673ffffffffffffffffffffffffffffffffffffffff16815260200190815260200160002060008a60000151815260200190815260200160002060020160009054906101000a900473ffffffffffffffffffffffffffffffffffffffff1673ffffffffffffffffffffffffffffffffffffffff1661100d61182e565b73ffffffffffffffffffffffffffffffffffffffff1614611063576040517f08c379a000000000000000000000000000000000000000000000000000000000815260040161105a906133ea565b60405180910390fd5b61107689602001518a6000015185611910565b61108d82898b602001518c600001518b888a611c72565b83857fc9e5510bc862c77b13a2965048f9060e72fccccc0951199db471ae34b03b0ca18b602001516110bd61182e565b6040516110cb92919061328a565b60405180910390a3505050505050505050565b6069602052816000526040600020602052806000526040600020600091509150508060000154908060010154908060020160009054906101000a900473ffffffffffffffffffffffffffffffffffffffff16908060030154908060040160009054906101000a900473ffffffffffffffffffffffffffffffffffffffff16905085565b611169612240565b61117360006122be565b565b61117d612240565b80606a8190555050565b6000603360009054906101000a900473ffffffffffffffffffffffffffffffffffffffff16905090565b60006111bb612240565b606560009054906101000a900473ffffffffffffffffffffffffffffffffffffffff16905090565b6068602052816000526040600020602052806000526040600020600091509150508060000154908060010154908060020160009054906101000a900473ffffffffffffffffffffffffffffffffffffffff169080600301805461124590613a28565b80601f016020809104026020016040519081016040528092919081815260200182805461127190613a28565b80156112be5780601f10611293576101008083540402835291602001916112be565b820191906000526020600020905b8154815290600101906020018083116112a157829003601f168201915b5050505050908060040160009054906101000a900473ffffffffffffffffffffffffffffffffffffffff16905085565b60006112f8612240565b606a54905090565b60008060019054906101000a900460ff161590508080156113315750600160008054906101000a900460ff1660ff16105b8061135e575061134030612384565b15801561135d5750600160008054906101000a900460ff1660ff16145b5b61139d576040517f08c379a0000000000000000000000000000000000000000000000000000000008152600401611394906134ea565b60405180910390fd5b60016000806101000a81548160ff021916908360ff16021790555080156113da576001600060016101000a81548160ff0219169083151502179055505b6113e26123a7565b83606560006101000a81548173ffffffffffffffffffffffffffffffffffffffff021916908373ffffffffffffffffffffffffffffffffffffffff16021790555082606660006101000a81548173ffffffffffffffffffffffffffffffffffffffff021916908373ffffffffffffffffffffffffffffffffffffffff16021790555081606760006101000a81548173ffffffffffffffffffffffffffffffffffffffff021916908373ffffffffffffffffffffffffffffffffffffffff160217905550600a606a81905550610258606b81905550801561150f5760008060016101000a81548160ff0219169083151502179055507f7f26b83ff96e1f2b6a682f133852f6798a09c465da95921460cefb38474024986001604051611506919061338f565b60405180910390a15b50505050565b61151d612240565b80606560006101000a81548173ffffffffffffffffffffffffffffffffffffffff021916908373ffffffffffffffffffffffffffffffffffffffff16021790555050565b60008061157a6115758a8a8a8a8a8a612400565b61243f565b90506115868184612475565b915050979650505050505050565b61159c6127e2565b6000606960008573ffffffffffffffffffffffffffffffffffffffff1673ffffffffffffffffffffffffffffffffffffffff16815260200190815260200160002060008481526020019081526020016000206040518060a001604052908160008201548152602001600182015481526020016002820160009054906101000a900473ffffffffffffffffffffffffffffffffffffffff1673ffffffffffffffffffffffffffffffffffffffff1673ffffffffffffffffffffffffffffffffffffffff168152602001600382015481526020016004820160009054906101000a900473ffffffffffffffffffffffffffffffffffffffff1673ffffffffffffffffffffffffffffffffffffffff1673ffffffffffffffffffffffffffffffffffffffff1681525050905060006040518060c001604052808360000151815260200183602001518152602001836040015173ffffffffffffffffffffffffffffffffffffffff16815260200183606001518152602001836080015173ffffffffffffffffffffffffffffffffffffffff168152602001606860008873ffffffffffffffffffffffffffffffffffffffff1673ffffffffffffffffffffffffffffffffffffffff1681526020019081526020016000206000878152602001908152602001600020600001548152509050809250505092915050565b61179c612240565b600073ffffffffffffffffffffffffffffffffffffffff168173ffffffffffffffffffffffffffffffffffffffff16141561180c576040517f08c379a00000000000000000000000000000000000000000000000000000000081526004016118039061344a565b60405180910390fd5b611815816122be565b50565b60008183611826919061384e565b905092915050565b600033905090565b600080434090506000814241604051602001611854939291906131c2565b60405160208183030381529060405290506000818051906020012090508060001c935050505090565b6000606560009054906101000a900473ffffffffffffffffffffffffffffffffffffffff1673ffffffffffffffffffffffffffffffffffffffff168273ffffffffffffffffffffffffffffffffffffffff16149050919050565b600080611901600a6118f3600c8761249c90919063ffffffff16565b6124b290919063ffffffff16565b90508083101591505092915050565b6000606860008573ffffffffffffffffffffffffffffffffffffffff1673ffffffffffffffffffffffffffffffffffffffff1681526020019081526020016000206000848152602001908152602001600020600101541115611c6d576000606860008573ffffffffffffffffffffffffffffffffffffffff1673ffffffffffffffffffffffffffffffffffffffff16815260200190815260200160002060008481526020019081526020016000206040518060a001604052908160008201548152602001600182015481526020016002820160009054906101000a900473ffffffffffffffffffffffffffffffffffffffff1673ffffffffffffffffffffffffffffffffffffffff1673ffffffffffffffffffffffffffffffffffffffff168152602001600382018054611a4390613a28565b80601f0160208091040260200160405190810160405280929190818152602001828054611a6f90613a28565b8015611abc5780601f10611a9157610100808354040283529160200191611abc565b820191906000526020600020905b815481529060010190602001808311611a9f57829003601f168201915b505050505081526020016004820160009054906101000a900473ffffffffffffffffffffffffffffffffffffffff1673ffffffffffffffffffffffffffffffffffffffff1673ffffffffffffffffffffffffffffffffffffffff16815250509050606860008573ffffffffffffffffffffffffffffffffffffffff1673ffffffffffffffffffffffffffffffffffffffff168152602001908152602001600020600084815260200190815260200160002060040160009054906101000a900473ffffffffffffffffffffffffffffffffffffffff1673ffffffffffffffffffffffffffffffffffffffff1663a9059cbb8260400151846040518363ffffffff1660e01b8152600401611bcf929190613321565b602060405180830381600087803b158015611be957600080fd5b505af1158015611bfd573d6000803e3d6000fd5b505050506040513d601f19601f82011682018060405250810190611c219190612b6d565b507f1482d6e51ee58f33a2f4cfa47ed508eb7fcc2889d5750d79c766f1fa394e74cd81600001518483604001518460200151604051611c639493929190613713565b60405180910390a1505b505050565b6000606660009054906101000a900473ffffffffffffffffffffffffffffffffffffffff1690506000606960008873ffffffffffffffffffffffffffffffffffffffff1673ffffffffffffffffffffffffffffffffffffffff1681526020019081526020016000206000878152602001908152602001600020600101549050606960008873ffffffffffffffffffffffffffffffffffffffff1673ffffffffffffffffffffffffffffffffffffffff168152602001908152602001600020600087815260200190815260200160002060008082016000905560018201600090556002820160006101000a81549073ffffffffffffffffffffffffffffffffffffffff021916905560038201600090556004820160006101000a81549073ffffffffffffffffffffffffffffffffffffffff021916905550508173ffffffffffffffffffffffffffffffffffffffff1663a9059cbb611dce61182e565b836040518363ffffffff1660e01b8152600401611dec929190613321565b602060405180830381600087803b158015611e0657600080fd5b505af1158015611e1a573d6000803e3d6000fd5b505050506040513d601f19601f82011682018060405250810190611e3e9190612b6d565b508873ffffffffffffffffffffffffffffffffffffffff166323b872dd611e6361182e565b308b6040518463ffffffff1660e01b8152600401611e83939291906132ea565b602060405180830381600087803b158015611e9d57600080fd5b505af1158015611eb1573d6000803e3d6000fd5b505050506040513d601f19601f82011682018060405250810190611ed59190612b6d565b506000611eeb858a6124c890919063ffffffff16565b90508973ffffffffffffffffffffffffffffffffffffffff1663095ea7b3606560009054906101000a900473ffffffffffffffffffffffffffffffffffffffff16611feb8d73ffffffffffffffffffffffffffffffffffffffff1663dd62ed3e30606560009054906101000a900473ffffffffffffffffffffffffffffffffffffffff166040518363ffffffff1660e01b8152600401611f8c92919061328a565b60206040518083038186803b158015611fa457600080fd5b505afa158015611fb8573d6000803e3d6000fd5b505050506040513d601f19601f82011682018060405250810190611fdc9190612ca2565b8561181890919063ffffffff16565b6040518363ffffffff1660e01b8152600401612008929190613321565b602060405180830381600087803b15801561202257600080fd5b505af1158015612036573d6000803e3d6000fd5b505050506040513d601f19601f8201168201806040525081019061205a9190612b6d565b508773ffffffffffffffffffffffffffffffffffffffff1663d0ade91b88886040518363ffffffff1660e01b8152600401612096929190613689565b600060405180830381600087803b1580156120b057600080fd5b505af11580156120c4573d6000803e3d6000fd5b505050506040518060a001604052808581526020018a81526020016120e761182e565b73ffffffffffffffffffffffffffffffffffffffff1681526020018781526020018b73ffffffffffffffffffffffffffffffffffffffff16815250606860008a73ffffffffffffffffffffffffffffffffffffffff1673ffffffffffffffffffffffffffffffffffffffff1681526020019081526020016000206000898152602001908152602001600020600082015181600001556020820151816001015560408201518160020160006101000a81548173ffffffffffffffffffffffffffffffffffffffff021916908373ffffffffffffffffffffffffffffffffffffffff16021790555060608201518160030190805190602001906121e9929190612844565b5060808201518160040160006101000a81548173ffffffffffffffffffffffffffffffffffffffff021916908373ffffffffffffffffffffffffffffffffffffffff16021790555090505050505050505050505050565b61224861182e565b73ffffffffffffffffffffffffffffffffffffffff16612266611187565b73ffffffffffffffffffffffffffffffffffffffff16146122bc576040517f08c379a00000000000000000000000000000000000000000000000000000000081526004016122b39061350a565b60405180910390fd5b565b6000603360009054906101000a900473ffffffffffffffffffffffffffffffffffffffff16905081603360006101000a81548173ffffffffffffffffffffffffffffffffffffffff021916908373ffffffffffffffffffffffffffffffffffffffff1602179055508173ffffffffffffffffffffffffffffffffffffffff168173ffffffffffffffffffffffffffffffffffffffff167f8be0079c531659141344cd1fd0a4f28419497f9722a3daafe3b4186f6b6457e060405160405180910390a35050565b6000808273ffffffffffffffffffffffffffffffffffffffff163b119050919050565b600060019054906101000a900460ff166123f6576040517f08c379a00000000000000000000000000000000000000000000000000000000081526004016123ed906135ca565b60405180910390fd5b6123fe6124de565b565b600086868686868660405160200161241d969594939291906131ff565b6040516020818303038152906040528051906020012090509695505050505050565b60007f19457468657265756d205369676e6564204d6573736167653a0a33320000000060005281601c52603c6000209050919050565b6000806000612484858561253f565b9150915061249181612591565b819250505092915050565b600081836124aa91906138d5565b905092915050565b600081836124c091906138a4565b905092915050565b600081836124d6919061392f565b905092915050565b600060019054906101000a900460ff1661252d576040517f08c379a0000000000000000000000000000000000000000000000000000000008152600401612524906135ca565b60405180910390fd5b61253d61253861182e565b6122be565b565b6000806041835114156125815760008060006020860151925060408601519150606086015160001a9050612575878285856126ff565b9450945050505061258a565b60006002915091505b9250929050565b600060048111156125a5576125a4613b33565b5b8160048111156125b8576125b7613b33565b5b14156125c3576126fc565b600160048111156125d7576125d6613b33565b5b8160048111156125ea576125e9613b33565b5b141561262b576040517f08c379a0000000000000000000000000000000000000000000000000000000008152600401612622906133aa565b60405180910390fd5b6002600481111561263f5761263e613b33565b5b81600481111561265257612651613b33565b5b1415612693576040517f08c379a000000000000000000000000000000000000000000000000000000000815260040161268a9061342a565b60405180910390fd5b600360048111156126a7576126a6613b33565b5b8160048111156126ba576126b9613b33565b5b14156126fb576040517f08c379a00000000000000000000000000000000000000000000000000000000081526004016126f29061348a565b60405180910390fd5b5b50565b6000807f7fffffffffffffffffffffffffffffff5d576e7357a4501ddfe92f46681b20a08360001c111561273a5760006003915091506127d9565b60006001878787876040516000815260200160405260405161275f949392919061334a565b6020604051602081039080840390855afa158015612781573d6000803e3d6000fd5b505050602060405103519050600073ffffffffffffffffffffffffffffffffffffffff168173ffffffffffffffffffffffffffffffffffffffff1614156127d0576000600192509250506127d9565b80600092509250505b94509492505050565b6040518060c001604052806000815260200160008152602001600073ffffffffffffffffffffffffffffffffffffffff16815260200160008152602001600073ffffffffffffffffffffffffffffffffffffffff168152602001600081525090565b82805461285090613a28565b90600052602060002090601f01602090048101928261287257600085556128b9565b82601f1061288b57805160ff19168380011785556128b9565b828001600101855582156128b9579182015b828111156128b857825182559160200191906001019061289d565b5b5090506128c691906128ca565b5090565b5b808211156128e35760008160009055506001016128cb565b5090565b60006128fa6128f5846137d0565b6137ab565b90508281526020810184848401111561291657612915613bca565b5b6129218482856139e6565b509392505050565b600061293c61293784613801565b6137ab565b90508281526020810184848401111561295857612957613bca565b5b6129638482856139e6565b509392505050565b60008135905061297a8161405b565b92915050565b60008151905061298f8161405b565b92915050565b6000815190506129a481614072565b92915050565b600082601f8301126129bf576129be613bc0565b5b81356129cf8482602086016128e7565b91505092915050565b600082601f8301126129ed576129ec613bc0565b5b81356129fd848260208601612929565b91505092915050565b600060408284031215612a1c57612a1b613bc5565b5b612a2660406137ab565b90506000612a3684828501612a56565b6000830152506020612a4a8482850161296b565b60208301525092915050565b600081359050612a6581614089565b92915050565b600081519050612a7a81614089565b92915050565b600060208284031215612a9657612a95613bd4565b5b6000612aa48482850161296b565b91505092915050565b600060208284031215612ac357612ac2613bd4565b5b6000612ad184828501612980565b91505092915050565b600080600060608486031215612af357612af2613bd4565b5b6000612b018682870161296b565b9350506020612b128682870161296b565b9250506040612b238682870161296b565b9150509250925092565b60008060408385031215612b4457612b43613bd4565b5b6000612b528582860161296b565b9250506020612b6385828601612a56565b9150509250929050565b600060208284031215612b8357612b82613bd4565b5b6000612b9184828501612995565b91505092915050565b6000806000806000806000610100888a031215612bba57612bb9613bd4565b5b6000612bc88a828b01612a06565b9750506040612bd98a828b01612a56565b965050606088013567ffffffffffffffff811115612bfa57612bf9613bcf565b5b612c068a828b016129d8565b955050608088013567ffffffffffffffff811115612c2757612c26613bcf565b5b612c338a828b016129aa565b94505060a0612c448a828b01612a56565b93505060c0612c558a828b01612a56565b92505060e0612c668a828b01612a56565b91505092959891949750929550565b600060208284031215612c8b57612c8a613bd4565b5b6000612c9984828501612a56565b91505092915050565b600060208284031215612cb857612cb7613bd4565b5b6000612cc684828501612a6b565b91505092915050565b600080600080600080600060e0888a031215612cee57612ced613bd4565b5b6000612cfc8a828b01612a56565b9750506020612d0d8a828b0161296b565b9650506040612d1e8a828b0161296b565b9550506060612d2f8a828b01612a56565b9450506080612d408a828b01612a56565b93505060a0612d518a828b01612a56565b92505060c088013567ffffffffffffffff811115612d7257612d71613bcf565b5b612d7e8a828b016129aa565b91505092959891949750929550565b612d9e612d9982613975565b613a9d565b82525050565b612dad81613963565b82525050565b612dbc81613963565b82525050565b612dd3612dce82613963565b613a8b565b82525050565b612de281613993565b82525050565b612df9612df482613993565b613aaf565b82525050565b612e08816139d4565b82525050565b6000612e1982613832565b612e23818561383d565b9350612e338185602086016139f5565b612e3c81613bd9565b840191505092915050565b6000612e5460188361383d565b9150612e5f82613bf7565b602082019050919050565b6000612e7760228361383d565b9150612e8282613c20565b604082019050919050565b6000612e9a60148361383d565b9150612ea582613c6f565b602082019050919050565b6000612ebd60128361383d565b9150612ec882613c98565b602082019050919050565b6000612ee0601f8361383d565b9150612eeb82613cc1565b602082019050919050565b6000612f0360268361383d565b9150612f0e82613cea565b604082019050919050565b6000612f2660198361383d565b9150612f3182613d39565b602082019050919050565b6000612f4960228361383d565b9150612f5482613d62565b604082019050919050565b6000612f6c60238361383d565b9150612f7782613db1565b604082019050919050565b6000612f8f601e8361383d565b9150612f9a82613e00565b602082019050919050565b6000612fb2602e8361383d565b9150612fbd82613e29565b604082019050919050565b6000612fd560208361383d565b9150612fe082613e78565b602082019050919050565b6000612ff860108361383d565b915061300382613ea1565b602082019050919050565b600061301b60148361383d565b915061302682613eca565b602082019050919050565b600061303e600f8361383d565b915061304982613ef3565b602082019050919050565b600061306160108361383d565b915061306c82613f1c565b602082019050919050565b600061308460378361383d565b915061308f82613f45565b604082019050919050565b60006130a7602b8361383d565b91506130b282613f94565b604082019050919050565b60006130ca60168361383d565b91506130d582613fe3565b602082019050919050565b60006130ed60278361383d565b91506130f88261400c565b604082019050919050565b60c082016000820151613119600085018261317e565b50602082015161312c602085018261317e565b50604082015161313f6040850182612da4565b506060820151613152606085018261317e565b5060808201516131656080850182612da4565b5060a082015161317860a085018261317e565b50505050565b613187816139bd565b82525050565b613196816139bd565b82525050565b6131ad6131a8826139bd565b613acb565b82525050565b6131bc816139c7565b82525050565b60006131ce8286612de8565b6020820191506131de828561319c565b6020820191506131ee8284612d8d565b601482019150819050949350505050565b600061320b828961319c565b60208201915061321b8288612dc2565b60148201915061322b8287612dc2565b60148201915061323b828661319c565b60208201915061324b828561319c565b60208201915061325b828461319c565b602082019150819050979650505050505050565b60006020820190506132846000830184612db3565b92915050565b600060408201905061329f6000830185612db3565b6132ac6020830184612db3565b9392505050565b60006060820190506132c86000830186612db3565b6132d56020830185612db3565b6132e26040830184612db3565b949350505050565b60006060820190506132ff6000830186612db3565b61330c6020830185612db3565b613319604083018461318d565b949350505050565b60006040820190506133366000830185612db3565b613343602083018461318d565b9392505050565b600060808201905061335f6000830187612dd9565b61336c60208301866131b3565b6133796040830185612dd9565b6133866060830184612dd9565b95945050505050565b60006020820190506133a46000830184612dff565b92915050565b600060208201905081810360008301526133c381612e47565b9050919050565b600060208201905081810360008301526133e381612e6a565b9050919050565b6000602082019050818103600083015261340381612e8d565b9050919050565b6000602082019050818103600083015261342381612eb0565b9050919050565b6000602082019050818103600083015261344381612ed3565b9050919050565b6000602082019050818103600083015261346381612ef6565b9050919050565b6000602082019050818103600083015261348381612f19565b9050919050565b600060208201905081810360008301526134a381612f3c565b9050919050565b600060208201905081810360008301526134c381612f5f565b9050919050565b600060208201905081810360008301526134e381612f82565b9050919050565b6000602082019050818103600083015261350381612fa5565b9050919050565b6000602082019050818103600083015261352381612fc8565b9050919050565b6000602082019050818103600083015261354381612feb565b9050919050565b600060208201905081810360008301526135638161300e565b9050919050565b6000602082019050818103600083015261358381613031565b9050919050565b600060208201905081810360008301526135a381613054565b9050919050565b600060208201905081810360008301526135c381613077565b9050919050565b600060208201905081810360008301526135e38161309a565b9050919050565b60006020820190508181036000830152613603816130bd565b9050919050565b60006020820190508181036000830152613623816130e0565b9050919050565b600060c08201905061363f6000830184613103565b92915050565b600060208201905061365a600083018461318d565b92915050565b6000604082019050613675600083018561318d565b6136826020830184612db3565b9392505050565b600060408201905061369e600083018561318d565b81810360208301526136b08184612e0e565b90509392505050565b600060a0820190506136ce600083018861318d565b6136db602083018761318d565b6136e86040830186612db3565b81810360608301526136fa8185612e0e565b90506137096080830184612db3565b9695505050505050565b6000608082019050613728600083018761318d565b613735602083018661318d565b6137426040830185612db3565b61374f606083018461318d565b95945050505050565b600060a08201905061376d600083018861318d565b61377a602083018761318d565b6137876040830186612db3565b613794606083018561318d565b6137a16080830184612db3565b9695505050505050565b60006137b56137c6565b90506137c18282613a5a565b919050565b6000604051905090565b600067ffffffffffffffff8211156137eb576137ea613b91565b5b6137f482613bd9565b9050602081019050919050565b600067ffffffffffffffff82111561381c5761381b613b91565b5b61382582613bd9565b9050602081019050919050565b600081519050919050565b600082825260208201905092915050565b6000613859826139bd565b9150613864836139bd565b9250827fffffffffffffffffffffffffffffffffffffffffffffffffffffffffffffffff0382111561389957613898613ad5565b5b828201905092915050565b60006138af826139bd565b91506138ba836139bd565b9250826138ca576138c9613b04565b5b828204905092915050565b60006138e0826139bd565b91506138eb836139bd565b9250817fffffffffffffffffffffffffffffffffffffffffffffffffffffffffffffffff048311821515161561392457613923613ad5565b5b828202905092915050565b600061393a826139bd565b9150613945836139bd565b92508282101561395857613957613ad5565b5b828203905092915050565b600061396e8261399d565b9050919050565b60006139808261399d565b9050919050565b60008115159050919050565b6000819050919050565b600073ffffffffffffffffffffffffffffffffffffffff82169050919050565b6000819050919050565b600060ff82169050919050565b60006139df826139c7565b9050919050565b82818337600083830152505050565b60005b83811015613a135780820151818401526020810190506139f8565b83811115613a22576000848401525b50505050565b60006002820490506001821680613a4057607f821691505b60208210811415613a5457613a53613b62565b5b50919050565b613a6382613bd9565b810181811067ffffffffffffffff82111715613a8257613a81613b91565b5b80604052505050565b6000613a9682613ab9565b9050919050565b6000613aa882613ab9565b9050919050565b6000819050919050565b6000613ac482613bea565b9050919050565b6000819050919050565b7f4e487b7100000000000000000000000000000000000000000000000000000000600052601160045260246000fd5b7f4e487b7100000000000000000000000000000000000000000000000000000000600052601260045260246000fd5b7f4e487b7100000000000000000000000000000000000000000000000000000000600052602160045260246000fd5b7f4e487b7100000000000000000000000000000000000000000000000000000000600052602260045260246000fd5b7f4e487b7100000000000000000000000000000000000000000000000000000000600052604160045260246000fd5b600080fd5b600080fd5b600080fd5b600080fd5b600080fd5b6000601f19601f8301169050919050565b60008160601b9050919050565b7f45434453413a20696e76616c6964207369676e61747572650000000000000000600082015250565b7f42696420616d6f756e74206d7573742062652067726561746572207468616e2060008201527f302e000000000000000000000000000000000000000000000000000000000000602082015250565b7f4e6f742074686520707265426964206f776e6572000000000000000000000000600082015250565b7f62616c616e6365206e6f7420656e6f7567680000000000000000000000000000600082015250565b7f45434453413a20696e76616c6964207369676e6174757265206c656e67746800600082015250565b7f4f776e61626c653a206e6577206f776e657220697320746865207a65726f206160008201527f6464726573730000000000000000000000000000000000000000000000000000602082015250565b7f54686520626964206973206c657373207468616e203132302500000000000000600082015250565b7f45434453413a20696e76616c6964207369676e6174757265202773272076616c60008201527f7565000000000000000000000000000000000000000000000000000000000000602082015250565b7f6e6f7420736c6f744d616e61676572206f7220686e66744964206e6f7420657860008201527f6973740000000000000000000000000000000000000000000000000000000000602082015250565b7f684e46544964206d7573742062652067726561746572207468616e20302e0000600082015250565b7f496e697469616c697a61626c653a20636f6e747261637420697320616c72656160008201527f647920696e697469616c697a6564000000000000000000000000000000000000602082015250565b7f4f776e61626c653a2063616c6c6572206973206e6f7420746865206f776e6572600082015250565b7f496e76616c696420637572426964496400000000000000000000000000000000600082015250565b7f616c6c6f77616e6365206e6f7420656e6f756768000000000000000000000000600082015250565b7f496e76616c6964205369676e6572210000000000000000000000000000000000600082015250565b7f496e76616c696420707265426964496400000000000000000000000000000000600082015250565b7f54686520684e465420616e6420676f7665726e616e636520636f6e747261637460008201527f2063616e206e6f7420626520616464726573732830292e000000000000000000602082015250565b7f496e697469616c697a61626c653a20636f6e7472616374206973206e6f74206960008201527f6e697469616c697a696e67000000000000000000000000000000000000000000602082015250565b7f4144332062616c616e6365206e6f7420656e6f75676800000000000000000000600082015250565b7f4c61737420707265426964207374696c6c2077697468696e207468652076616c60008201527f69642074696d6500000000000000000000000000000000000000000000000000602082015250565b61406481613963565b811461406f57600080fd5b50565b61407b81613987565b811461408657600080fd5b50565b614092816139bd565b811461409d57600080fd5b5056fea26469706673582212202144cef5051fd125a482bd5c5796da748ee29de608c052d089f16b7d72bdf5d764736f6c63430008050033",
  "linkReferences": {},
  "deployedLinkReferences": {}
}